:1000000080312C28710808007E14803120007F0880
:10001000FB000B1F27282100911E15282000911E90
:1000200015288E312D26803127282100941C1F2869
:100030002000941C1F288D312C2580312728210079
:10004000141C27282000141C27288131B9217B0883
:100050002000FF007E10090080312E28E23084004D
:10006000223085000E30FE000130FF008D3160250A
:100070008031F001F101F201F301F401F5012000FA
:10008000D901DA01DB01DC01DD01DE01DF01A03095
:100090008400003085003F30FE000030FF008D31CD
:1000A00060257E1020008431312C8D314325803134
:1000B00020002108B6002008B50035088600360863
:1000C000870041310108031D6C283608A20035085D
:1000D000A1008E31F526080020003508860036087C
:1000E000870041310103031D502935088600360879
:1000F00087004231403FB000413FB1000030310243
:10010000043003193002031C08003508053EB00016
:100110000030363DB1003008B3003108B400330878
:100120008600340887000108031DC82833088600AC
:100130003408870041310108031DAA28D7308E31C9
:100140006326803120003608AA003508A9008F31C7
:100150001F27803120003308860034088700413192
:100160000103031D0800330886003408870042316C
:100170000108B0003008AD00D7308D31C82580317E
:1001800020003608AA003508A9008F311F27080073
:10019000200033088600340887000103031D02296C
:1001A000330886003408870041310108031DE42824
:1001B000D7308E317F26803120003608AA003508DE
:1001C000A9008F311F2780312000330886003408B2
:1001D000870041310103031D0800330886003408FD
:1001E000870042310108B0003008AB00D7308D31B4
:1001F000A525803120003608AA003508A9008F31D6
:100200001F270800200033088600340887000230CA
:100210000106031D2929330886003408870041316F
:100220000108B0003008A0003308860034088700B9
:100230004231403FA100413FA200D7308D317925A6
:10024000803120003608AA003508A9008F311F2709
:1002500008002000330886003408870003300106B8
:10026000031D080033088600340887004131010867
:10027000B0003008A000D7308D316C2580312000CF
:10028000330886003408870042312008C03F210827
:10029000C13F3608AA003508A9008F311F27080082
:1002A00020003508860036088700413102300106FB
:1002B000031D08003508860036088700453101080F
:1002C000031D0800350886003608870046310108FE
:1002D000031D8D293508073EB0000030363DB100C2
:1002E000300886003108870021004708810048084F
:1002F0002000B0003508083EB1000030363DB200A5
:100300003108860032088700300881003608AA00CC
:100310003508A9008F311F27080020003508860006
:100320003608870046310103031D08003508073EE3
:10033000B0000030363DB10030088600310887003B
:100340002100490881004A082000B0003508083E15
:10035000B1000030363DB200310886003208870017
:10036000300881003608AA003508A9008F311F2700
:1003700008002000141024009D1FEB2A9D1320006C
:10038000DF012100CC0108002100C218080041084B
:10039000F7007708CC004108860087010108F700C4
:1003A00077082000DE002100410886008701413FD8
:1003B000F0000430F7007708C1074108DF3A031D59
:1003C000E529DB30F7007708C100421041084006FC
:1003D0000319C21424001E140230F700770820000D
:1003E000DF00080024009E140230F7007708200088
:1003F000DF00080024001E1F062A0130F7007708DE
:100400002100C40704308731FB2708007508F80075
:100410007408F700F836F70C770824009900741C6C
:10042000172A0B30F70077082000DF0008000330A0
:10043000F70077082000DF00080024001E1F292A8B
:100440000130F70077082100C40704308731FB270B
:1004500008009E147508F8007408F7007808F70083
:10046000F80106307705F90000307805FA00F03021
:100470007904F40000307A04F50074142100CB01F3
:10048000CB0A0230F70077082000DF0008002100C7
:100490004B0303195D2A700886008701403FF40072
:1004A000413FF500700886008701433F2000DD00D2
:1004B000700886008701423FDC0074082400990020
:1004C000741C682A0530F70077082000DF00080058
:1004D0000330F70077082000DF00080024001E1F0B
:1004E0007C2A0130F70077082100C40724001E137E
:1004F00005308731FB27080001302000DC025C0A50
:10050000031D962A0530F7007708F0070130DE0258
:10051000031D8E2A00308731FB27080024009E141B
:100520000230F70077082000DF0008005D08860031
:1005300087010108240099000130F70077082000A6
:10054000DD07080024001E1FB02A0130F7007708DD
:100550002100C40704308731FB2724001E13080044
:100560009E150830F70077082000DF0008000830EB
:10057000F7007708DF0024009E1508002400190802
:10058000F70020005D0886008701770881000130B0
:10059000F7007708DD070130DC020319D72A2400B1
:1005A0009E120630F70077082000DF00DB2A2400C7
:1005B0009E168D31942524001E16080000308731C8
:1005C000FB2708000130F70077082100C407063038
:1005D0008731FB27080020005F0884000C300402EC
:1005E0000318E22A88310435003E8200080020000A
:1005F000B4005B08031D022B6930D9002330DA00F8
:10060000DB01DB0A5B03031D182BAB303406031937
:100610000C2BDB0100300800590886005A088700BF
:10062000340881000130D9070030DA3D0230DF2B79
:1006300002305B06031D282B590886005A088700E4
:10064000340881000130D9070030DA3D0330DF2B58
:1006500003305B06031D382B590886005A088700B3
:10066000340881000130D9070030DA3D0430DF2B37
:1006700004305B06031D482B590886005A08870082
:10068000340881000130D9070030DA3D0530DF2B16
:1006900005305B06031D8F2B590886005A0887001A
:1006A000340881000130D9070030DA3D5908973EFF
:1006B000AF00DC305A3DB0006930A0002330A1000B
:1006C0003008A3002F08A2008731DB2782312000E9
:1006D000A8002808B10031080319712BDB01003094
:1006E0000800693086002330870042310108A800E5
:1006F000A901693086002330870043310108AA0030
:10070000AB012A08AB00AA0128082A042100C50071
:10071000200029082B042100C6000730DE2B0730FB
:100720005B06031DBB2B590886005A088700340856
:1007300081000130D9070030DA3D21004508053E2F
:100740002000A80000302100463D2000A9005908E3
:10075000973EAA00DC305A3DAB002B08803AAC0033
:100760002908803A2C02031DB72B28082A02031CF3
:100770002F2C0830DE2B08305B06031DE32B5908B5
:1007800086005A088700340881000130D9070030FC
:10079000DA3D6930A0002330A1005908973EA2003D
:1007A000DC305A3DA3008731DB278231003A031940
:1007B000DD2B2000DB010030080009302000A800FC
:1007C0002808DB002F2C09305B06031D2C2C590850
:1007D00086005A08870034088100BA3034060319AD
:1007E000F42BDB0100300800DB01B201B301210072
:1007F0004508073E2000A80000302100463D2000AB
:10080000A90029083302031D072C28083202031807
:100810002A2C6930A8002330A90032082807860056
:100820003308293D87000108AA00E230AB002230DE
:10083000AC0032082B07AD0033082C3DAE002D086C
:1008400086002E0887002A0881000130B207003098
:10085000B33DF72B01300800DB0100300800003009
:100860000800D7308E31632684318E3115268431CD
:100870008D31322584318B170B1702308E31D626FD
:100880008431200021082100EC00200020082100F4
:10089000EB006B35EB006C0DEC000A302000A00083
:1008A0000030A10021006B080C3E2000A200FE30A9
:1008B00021006C3D2000A3008F314B2784312000A4
:1008C00021082100EC00200020082100EB006C082A
:1008D0002000A90021006B082000A8008E3100260E
:1008E000843120002808AF002908B0002A08B10090
:1008F0006630AC00E630AD003F30AE0086313B26BE
:10090000843120002C08BF002D08C0002E08C10033
:100910000030BC000030BD004230BE0085314525AE
:10092000843120003C08C9003D08CA003E08CB00C5
:100930008631EF26843120004A082100E80020009B
:1009400049082100E7006808C8006708C7000330AD
:100950008E31D6268431200021082100EF002000AE
:1009600020082100EE006E35EE006F0DEF00003024
:100970006F02C83003196E020318C22CC830EE0093
:100980000030EF0058086F02031DC82C57086E0294
:100990000318CD2C22008E15D82C21006F085A0286
:1009A000031DD42C6E0859020318D82C22008E1176
:1009B0002D302000A0000030A10021006E08383E3C
:1009C0002000A200FF3021006F3D2000A3008F31E6
:1009D0004B27843120002008D7002108D800D735C4
:1009E000D80DD735D80D57082100E9002000580848
:1009F0002100EA006A08CA006908C900DF30200047
:100A0000D70057082100ED0068082000D70021001A
:100A10006D08860087012000570881000130D7004B
:100A200057082100ED0767082000D70021006D0856
:100A300086008701200057088100DF30D700570863
:100A40002100ED006A082000D70021006D08860013
:100A500087012000570881000130D7005708210086
:100A6000ED0769082000D70021006D088600870186
:100A70002000570881008D31DA258431003A0319AE
:100A80003D2C8031552084313D2C20003C08C20093
:100A90003D08C3003E08C4000310430D440DC500CB
:100AA0004508C8003F08C2004008C3004108C40010
:100AB0000310430D440DC5004508C700480803193D
:100AC0006D2D470848020318742D4803FF3A470765
:100AD000C20019304202031C742D3F08BC004008BC
:100AE000BD004108BE000800470803190800480877
:100AF00047020318832D4703FF3A4807C200193005
:100B00004202031808000630C2004208C600BE1B9D
:100B1000C617C11B4617BD17FF30BC05FF30BD050A
:100B20000030BE05C017FF30BF05FF30C0050030E4
:100B3000C105470848020318BF2D0130BF35C00D5D
:100B4000C10D890B9E2D0130C702470848060319C5
:100B5000BA2D0130C602460807390319BA2D9D2D5A
:100B60000130BE36BD0CBC0C890BB12D0130C2006A
:100B70004208C807480847060319E42DB02D480865
:100B800047020318E42D0130BC35BD0DBE0D890BA5
:100B9000C42D0130C802470848060319E02D013072
:100BA000C602460807390319E02DC32D0130C136AE
:100BB000C00CBF0C890BD72D0130C2004208C707FB
:100BC00048084706031DD62DC61FF62DFF30BC066C
:100BD000FF30BD06FF30BE060130BC0700300318F1
:100BE0000130BD07003003180130BE07461F082E34
:100BF000FF30BF06FF30C006FF30C1060130BF071F
:100C0000003003180130C007003003180130C1075D
:100C1000C6013C08BF073D08C03D3E08C13DC11F9D
:100C2000232EFF30BF06FF30C006FF30C106013063
:100C3000BF07003003180130C0070030031801302F
:100C4000C107C601C60A3F08A0004008A10041082C
:100C5000A2004808C2004208A3004608C300430897
:100C6000A4008731762720002008BC002108BD00A1
:100C70002208BE00080020002C08B2002D08B30096
:100C80002E08B4000310330D340DB5003508B6003E
:100C90003608031D522E0030AC000030AD0000308D
:100CA000AE0008002F08B2003008B3003108B400CD
:100CB0000310330D340DB5003508BB003B08031D90
:100CC000682E0030AC000030AD000030AE000800EF
:100CD0003B087B3EB2003208B6072C08B2002D0854
:100CE000B3002E08B4001030B436B30CB20C890B2C
:100CF000742E3208B5003508BB002F08B20030084A
:100D0000B3003108B4001030B436B30CB20C890B08
:100D1000842E3208B5003508BB068030B200320898
:100D2000BB05AD17B017FF30AF05FF30B005003081
:100D3000B1050030B7000030B8000030B90007300E
:100D4000B2003208BA002C1CAB2E2F08B7073008AF
:100D5000B83D3108B93D0130AE36AD0CAC0C890B55
:100D6000AC2E0130AF35B00DB10D890BB22E013074
:100D7000BA02031DA32E0930B2003208BA002C1C9F
:100D8000C72E2F08B7073008B83D3108B93D0130EC
:100D9000AE36AD0CAC0C890BC82E0130B936B80C90
:100DA000B70C890BCE2E0130BA02031DBF2E3708B7
:100DB000A0003808A1003908A2003608B2003208A5
:100DC000A3003B08B3003308A40087317627200036
:100DD0002008AC002108AD002208AE000800200069
:100DE0004908CD004A08CE004B08CF0003104E0D35
:100DF0004F0DD0005008D6005608031D082F0030B4
:100E0000CC000030CB000030CA000030C900080020
:100E10004908CD004A08CE004B08CF001730CF3626
:100E2000CE0CCD0C890B0F2F4D08D0005008D100EF
:100E3000CA17FF30C905FF30CA050030CB05490885
:100E4000D2004A08D3004B08D400D5018E30D60218
:100E5000D61F462F5608803A8F3E0318382F003091
:100E6000CC000030CB000030CA000030C9000800C0
:100E70000130D536D40CD30CD20C890B392F01306C
:100E8000CD004D08D60703195F2F382F18305602B2
:100E9000031C5C2F0030CC000030CB000030CA00B7
:100EA0000030C90008000130D235D30DD40DD50D66
:100EB000890B542F0130D6025608031D532F5108B9
:100EC00003196D2FD209D309D409D509D20A031900
:100ED000D30A0319D40A0319D50A5508CC005408BB
:100EE000CB005308CA005208C9000800200023089C
:100EF00003197F2F220821042004031D902F0030A6
:100F0000A0000030A1000030A20008000130A500C0
:100F10002508A3070130A236A10CA00C890B8B2F4A
:100F2000FE3022050319A92F862F0130A5002508C0
:100F3000A3070130A007003003180130A1070030DB
:100F400003180130A2070130A236A10CA00C890BB6
:100F5000A42FFF3022050319B62F952F0130A302CD
:100F60000130A035A10DA20D890BB12FA11BBC2F03
:100F7000023023020318AE2F2318C42FFF30A00520
:100F80007F30A105FF30A2050310A30C2308A500A4
:100F9000A601A7011030A535A60DA70D890BCB2FF3
:100FA0002508A0042608A1042708A2042408031980
:100FB0000800A21708002000A601A701A501A601AC
:100FC000A70123082702031DE72F22082602031882
:100FD000F82F2608200786002708213D87000108F2
:100FE000A4002408A5070130A6070030A73DE12F83
:100FF0002503FF3A080024001E152000DF01080029
:101000008131C4298131F2298231472A82316E2A05
:101010008231DE2A8231A22A8231B72A8231DE2A47
:101020008231BE2A8231E22A8131FA2982311D2A97
:101A58002000941008008031022008002000DB01DB
:101A68000800B230220097000800163021009700C5
:101A78000800240094012030950092010800E2300B
:101A88002000A0002230A100080070302100990039
:101A98009801220096010800013021009D00D330F2
:101AA8009E009B019C0108002000A000111E5A2DD9
:101AB800200823009A0008006400800101310130E9
:101AC800FE020030FF3B7F087E0403190034612DBD
:101AD8002000A30020352307A200220886008701E2
:101AE800403FA000413FA10008002000A40020358D
:101AF8002407A3002308860087012108C03F220885
:101B0800C13F08002000AA002630A8002808A0002D
:101B18000230A9002908A1002A088F31B627080039
:101B28000530F6007608F00701302000DE02031DBC
:101B3800A22D0430F6007608DF000800DF01DF0A76
:101B480008002000AD002B352D07AC002C088600BE
:101B58008701403FA600413FA7002B35003E8D314D
:101B68008625080021009112083023009F0090303C
:101B78009D0024309E0022309B009C01F301F2015D
:101B8800F1012100911608002000AF002D35003E1C
:101B98008D31ED2520002D352F07AE002E0886004B
:101BA80087012608C03F2708C13F08008D312F252F
:101BB8008D31003A0319EB2D8E31B8268D31200076
:101BC800B5003508B60036088231F7220800003023
:101BD80008002000AA002A08A8002808A00002304F
:101BE800A9002908A1002B308F31802720002C085C
:101BF800A7002B08A600080020002808A000290834
:101C0800A100A2018E30AB002B08A300A4018731EC
:101C1800762720002008A8002108A9002208AA0089
:101C280008008E3147268E318D3149258E318D3110
:101C380039258E318D313D258E318E319B268E3161
:101C48008D3135258E318D3150258E318D31B6252A
:101C5800080023009D1C322E1D121D161908F600BF
:101C68007308A03E86008701760881000130F600DF
:101C78007608F307203073020318F3010130F600E9
:101C88007608F107080022008C018D018E013F3093
:101C980021008C00B0308D0020308E004F302300A2
:101CA8008E008D0117308C0024008D018C018E016F
:101CB8002100951722009E0184309D000800200015
:101CC800AE00AF0102302F02031808002F35003E86
:101CD8008D31ED258E3120002F352E07AD002D08D2
:101CE800860087012608C03F2708C13F0130AD00A4
:101CF8002D08AF07662E2000AC00AD0102302D0282
:101D0800031808002D352C07AB002B088600870127
:101D1800403FA600413FA7002D35003E8D31862566
:101D28008E3101302000AB002B08AD07822EDB304E
:101D38002000A00020082100C100DB302000A00006
:101D480020082100C000C2144210C40124009C01D4
:101D580028309D009F0103309A0020001410941031
:101D680021001414941408002000A101710803191B
:101D7800BA2E7208A03E8600870101082000A00044
:101D88002008A1000130A0002008F20720307202CC
:101D98000318F201210091120130F102911620007E
:101DA800210808002000A3002308A200A20DA20D0C
:101DB80021001D08200022068339220621009D00EB
:101DC8001D142130890BE62E000021009D149D185A
:101DD800EB2E1C082000A10021001B082000A000F9
:101DE80008002000A701A801210886002208870012
:101DF8004231403FA300413FA4002308073EA5000D
:101E08000030243DA60026082802031D0D2F2508B2
:101E18002702031808002708210786002808223D02
:101E2800870001088D3158258E3101302000A70721
:101E38000030A83DF82E20002A08A1002908A0009B
:101E4800290886002A0887004231403FAB00413FFD
:101E5800AC002B08053EA20000302C3DA3008731C2
:101E6800DB278F312000AD002908093EAE00003085
:101E78002A3DAF002E0886002F0887002D08810014
:101E88002A08A2002908A1008E31F52608002000A2
:101E9800A601A7012008210403197B2FA501A50A83
:101EA800A11B602F0130A035A10D890B572F0130E0
:101EB800A4002408A507542F0130A635A70D890BC7
:101EC800612F21082302031D6B2F20082202031C07
:101ED800722F2008A2022108A33B26140130A13644
:101EE800A00C890B732F0130A502031D602F270852
:101EF800A1002608A00008002000A5002508A200CF
:101F08002208A40023009518862F20002008A2008C
:101F1800A301220823009100200023082300920037
:101F280001302000A102210A031908002300951896
:101F38009A2F7F302000A20022082300950515144F
:101F480013082000A20024088600870122088100C7
:101F58000130A2002208A4070130230091070030B5
:101F6800923D942F2000A5002008A2002208A4007A
:101F780023009518BC2F20002508FF3EA200FF3043
:101F880003180030A3002208230091002000230832
:101F9800230092007F302000A2002208230095052C
:101FA80001302000A102210A031908002300951816
:101FB800DA2F2000240886008701010823009300F7
:101FC80001302000A2002208A40701302300910755
:101FD8000030923D200003108B1B03148B13230049
:101FE800151555309600AA30960095141511200045
:081FF800031CD42F8B17D42F1A
:020000040001F9
:04000E00E4FFFFFE0E
:08E00000000000000000000018
:00000001FF
